{"contracts/CryptoDevsDao.sol":{"CryptoDevsDAO":{"abi":[{"inputs":[{"internalType":"address","name":"_nftContract","type":"address"},{"internalType":"address","name":"_marketplace","type":"address"}],"stateMutability":"payable","type":"constructor"},{"inputs":[{"internalType":"address","name":"owner","type":"address"}],"name":"OwnableInvalidOwner","type":"error"},{"inputs":[{"internalType":"address","name":"account","type":"address"}],"name":"OwnableUnauthorizedAccount","type":"error"},{"anonymous":false,"inputs":[{"indexed":true,"internalType":"address","name":"previousOwner","type":"address"},{"indexed":true,"internalType":"address","name":"newOwner","type":"address"}],"name":"OwnershipTransferred","type":"event"},{"stateMutability":"payable","type":"fallback"},{"inputs":[{"internalType":"uint256","name":"_nftTokenId","type":"uint256"}],"name":"createProposal","outputs":[{"internalType":"uint256","name":"","type":"uint256"}],"stateMutability":"nonpayable","type":"function"},{"inputs":[{"internalType":"uint256","name":"proposalId","type":"uint256"}],"name":"executeProposal","outputs":[],"stateMutability":"nonpayable","type":"function"},{"inputs":[{"internalType":"uint256","name":"_proposalId","type":"uint256"}],"name":"getProposal","outputs":[{"internalType":"uint256","name":"id","type":"uint256"},{"internalType":"uint256","name":"nftTokenId","type":"uint256"},{"internalType":"uint256","name":"votesFor","type":"uint256"},{"internalType":"uint256","name":"votesAgainst","type":"uint256"},{"internalType":"bool","name":"executed","type":"bool"}],"stateMutability":"view","type":"function"},{"inputs":[],"name":"marketplace","outputs":[{"internalType":"contract IFakeNFTMarketplace","name":"","type":"address"}],"stateMutability":"view","type":"function"},{"inputs":[],"name":"nftContract","outputs":[{"internalType":"contract ICryptoDevsNFT","name":"","type":"address"}],"stateMutability":"view","type":"function"},{"inputs":[],"name":"owner","outputs":[{"internalType":"address","name":"","type":"address"}],"stateMutability":"view","type":"function"},{"inputs":[],"name":"proposalCount","outputs":[{"internalType":"uint256","name":"","type":"uint256"}],"stateMutability":"view","type":"function"},{"inputs":[{"internalType":"uint256","name":"","type":"uint256"}],"name":"proposals","outputs":[{"internalType":"uint256","name":"id","type":"uint256"},{"internalType":"uint256","name":"nftTokenId","type":"uint256"},{"internalType":"uint256","name":"deadline","type":"uint256"},{"internalType":"uint256","name":"votesFor","type":"uint256"},{"internalType":"uint256","name":"votesAgainst","type":"uint256"},{"internalType":"bool","name":"executed","type":"bool"}],"stateMutability":"view","type":"function"},{"inputs":[],"name":"renounceOwnership","outputs":[],"stateMutability":"nonpayable","type":"function"},{"inputs":[{"internalType":"address","name":"newOwner","type":"address"}],"name":"transferOwnership","outputs":[],"stateMutability":"nonpayable","type":"function"},{"inputs":[{"internalType":"uint256","name":"proposalId","type":"uint256"},{"internalType":"bool","name":"voteFor","type":"bool"}],"name":"vote","outputs":[],"stateMutability":"nonpayable","type":"function"},{"inputs":[],"name":"withdraw","outputs":[],"stateMutability":"nonpayable","type":"function"},{"stateMutability":"payable","type":"receive"}],"evm":{"bytecode":{"linkReferences":{},"object":"60806040526040516200188838038062001888833981810160405281019062000029919062000269565b33600073ffffffffffffffffffffffffffffffffffffffff168173ffffffffffffffffffffffffffffffffffffffff16036200009f5760006040517f1e4fbdf7000000000000000000000000000000000000000000000000000000008152600401620000969190620002c1565b60405180910390fd5b620000b0816200013b60201b60201c565b5081600260006101000a81548173ffffffffffffffffffffffffffffffffffffffff021916908373ffffffffffffffffffffffffffffffffffffffff16021790555080600360006101000a81548173ffffffffffffffffffffffffffffffffffffffff021916908373ffffffffffffffffffffffffffffffffffffffff1602179055505050620002de565b60008060009054906101000a900473ffffffffffffffffffffffffffffffffffffffff169050816000806101000a81548173ffffffffffffffffffffffffffffffffffffffff021916908373ffffffffffffffffffffffffffffffffffffffff1602179055508173ffffffffffffffffffffffffffffffffffffffff168173ffffffffffffffffffffffffffffffffffffffff167f8be0079c531659141344cd1fd0a4f28419497f9722a3daafe3b4186f6b6457e060405160405180910390a35050565b600080fd5b600073ffffffffffffffffffffffffffffffffffffffff82169050919050565b6000620002318262000204565b9050919050565b620002438162000224565b81146200024f57600080fd5b50565b600081519050620002638162000238565b92915050565b60008060408385031215620002835762000282620001ff565b5b6000620002938582860162000252565b9250506020620002a68582860162000252565b9150509250929050565b620002bb8162000224565b82525050565b6000602082019050620002d86000830184620002b0565b92915050565b61159a80620002ee6000396000f3fe6080604052600436106100ab5760003560e01c8063abc8c7af11610064578063abc8c7af146101b5578063c7f758a8146101e0578063c9d27afe14610221578063d56d229d1461024a578063da35c66414610275578063f2fde38b146102a0576100b2565b8063013cf08b146100b45780630d61b519146100f65780633ccfd60b1461011f5780635a43dc0014610136578063715018a6146101735780638da5cb5b1461018a576100b2565b366100b257005b005b3480156100c057600080fd5b506100db60048036038101906100d69190610d5b565b6102c9565b6040516100ed96959493929190610db2565b60405180910390f35b34801561010257600080fd5b5061011d60048036038101906101189190610d5b565b610312565b005b34801561012b57600080fd5b506101346105e8565b005b34801561014257600080fd5b5061015d60048036038101906101589190610d5b565b6106ac565b60405161016a9190610e13565b60405180910390f35b34801561017f57600080fd5b506101886107f2565b005b34801561019657600080fd5b5061019f610806565b6040516101ac9190610e6f565b60405180910390f35b3480156101c157600080fd5b506101ca61082f565b6040516101d79190610ee9565b60405180910390f35b3480156101ec57600080fd5b5061020760048036038101906102029190610d5b565b610855565b604051610218959493929190610f04565b60405180910390f35b34801561022d57600080fd5b5061024860048036038101906102439190610f83565b6108ad565b005b34801561025657600080fd5b5061025f610b17565b60405161026c9190610fe4565b60405180910390f35b34801561028157600080fd5b5061028a610b3d565b6040516102979190610e13565b60405180910390f35b3480156102ac57600080fd5b506102c760048036038101906102c2919061102b565b610b47565b005b60016020528060005260406000206000915090508060000154908060010154908060020154908060030154908060040154908060050160009054906101000a900460ff16905086565b60006001600083815260200190815260200160002090508060020154421161036f576040517f08c379a0000000000000000000000000000000000000000000000000000000008152600401610366906110b5565b60405180910390fd5b8060050160009054906101000a900460ff16156103c1576040517f08c379a00000000000000000000000000000000000000000000000000000000081526004016103b890611121565b60405180910390fd5b60018160050160006101000a81548160ff0219169083151502179055508060040154816003015411156105e457600360009054906101000a900473ffffffffffffffffffffffffffffffffffffffff1673ffffffffffffffffffffffffffffffffffffffff166398d5fdca6040518163ffffffff1660e01b8152600401602060405180830381865afa15801561045b573d6000803e3d6000fd5b505050506040513d601f19601f8201168201806040525081019061047f9190611156565b4710156104c1576040517f08c379a00000000000000000000000000000000000000000000000000000000081526004016104b8906111cf565b60405180910390fd5b600360009054906101000a900473ffffffffffffffffffffffffffffffffffffffff1673ffffffffffffffffffffffffffffffffffffffff1663efef39a1600360009054906101000a900473ffffffffffffffffffffffffffffffffffffffff1673ffffffffffffffffffffffffffffffffffffffff166398d5fdca6040518163ffffffff1660e01b8152600401602060405180830381865afa15801561056c573d6000803e3d6000fd5b505050506040513d601f19601f820116820180604052508101906105909190611156565b83600101546040518363ffffffff1660e01b81526004016105b19190610e13565b6000604051808303818588803b1580156105ca57600080fd5b505af11580156105de573d6000803e3d6000fd5b50505050505b5050565b6105f0610bcd565b600047905060006105ff610806565b73ffffffffffffffffffffffffffffffffffffffff168260405161062290611220565b60006040518083038185875af1925050503d806000811461065f576040519150601f19603f3d011682016040523d82523d6000602084013e610664565b606091505b50509050806106a8576040517f08c379a000000000000000000000000000000000000000000000000000000000815260040161069f90611281565b60405180910390fd5b5050565b6000600360009054906101000a900473ffffffffffffffffffffffffffffffffffffffff1673ffffffffffffffffffffffffffffffffffffffff166396e494e8836040518263ffffffff1660e01b81526004016107099190610e13565b602060405180830381865afa158015610726573d6000803e3d6000fd5b505050506040513d601f19601f8201168201806040525081019061074a91906112b6565b610789576040517f08c379a00000000000000000000000000000000000000000000000000000000081526004016107809061132f565b60405180910390fd5b60016004600082825461079c919061137e565b9250508190555060006001600060045481526020019081526020016000209050600454816000018190555082816001018190555062093a80426107df919061137e565b8160020181905550600454915050919050565b6107fa610bcd565b6108046000610c54565b565b60008060009054906101000a900473ffffffffffffffffffffffffffffffffffffffff16905090565b600360009054906101000a900473ffffffffffffffffffffffffffffffffffffffff1681565b60008060008060008060016000888152602001908152602001600020905080600001548160010154826003015483600401548460050160009054906101000a900460ff16955095509550955095505091939590929450565b6000600160008481526020019081526020016000209050806002015442111561090b576040517f08c379a0000000000000000000000000000000000000000000000000000000008152600401610902906113fe565b60405180910390fd5b6000600260009054906101000a900473ffffffffffffffffffffffffffffffffffffffff1673ffffffffffffffffffffffffffffffffffffffff166370a08231336040518263ffffffff1660e01b81526004016109689190610e6f565b602060405180830381865afa158015610985573d6000803e3d6000fd5b505050506040513d601f19601f820116820180604052508101906109a99190611156565b116109e9576040517f08c379a00000000000000000000000000000000000000000000000000000000081526004016109e090611490565b60405180910390fd5b8060060160003373ffffffffffffffffffffffffffffffffffffffff1673ffffffffffffffffffffffffffffffffffffffff16815260200190815260200160002060009054906101000a900460ff1615610a78576040517f08c379a0000000000000000000000000000000000000000000000000000000008152600401610a6f906114fc565b60405180910390fd5b60018160060160003373ffffffffffffffffffffffffffffffffffffffff1673ffffffffffffffffffffffffffffffffffffffff16815260200190815260200160002060006101000a81548160ff0219169083151502179055508115610af757806003016000815480929190610aed9061151c565b9190505550610b12565b806004016000815480929190610b0c9061151c565b91905055505b505050565b600260009054906101000a900473ffffffffffffffffffffffffffffffffffffffff1681565b6000600454905090565b610b4f610bcd565b600073ffffffffffffffffffffffffffffffffffffffff168173ffffffffffffffffffffffffffffffffffffffff1603610bc15760006040517f1e4fbdf7000000000000000000000000000000000000000000000000000000008152600401610bb89190610e6f565b60405180910390fd5b610bca81610c54565b50565b610bd5610d18565b73ffffffffffffffffffffffffffffffffffffffff16610bf3610806565b73ffffffffffffffffffffffffffffffffffffffff1614610c5257610c16610d18565b6040517f118cdaa7000000000000000000000000000000000000000000000000000000008152600401610c499190610e6f565b60405180910390fd5b565b60008060009054906101000a900473ffffffffffffffffffffffffffffffffffffffff169050816000806101000a81548173ffffffffffffffffffffffffffffffffffffffff021916908373ffffffffffffffffffffffffffffffffffffffff1602179055508173ffffffffffffffffffffffffffffffffffffffff168173ffffffffffffffffffffffffffffffffffffffff167f8be0079c531659141344cd1fd0a4f28419497f9722a3daafe3b4186f6b6457e060405160405180910390a35050565b600033905090565b600080fd5b6000819050919050565b610d3881610d25565b8114610d4357600080fd5b50565b600081359050610d5581610d2f565b92915050565b600060208284031215610d7157610d70610d20565b5b6000610d7f84828501610d46565b91505092915050565b610d9181610d25565b82525050565b60008115159050919050565b610dac81610d97565b82525050565b600060c082019050610dc76000830189610d88565b610dd46020830188610d88565b610de16040830187610d88565b610dee6060830186610d88565b610dfb6080830185610d88565b610e0860a0830184610da3565b979650505050505050565b6000602082019050610e286000830184610d88565b92915050565b600073ffffffffffffffffffffffffffffffffffffffff82169050919050565b6000610e5982610e2e565b9050919050565b610e6981610e4e565b82525050565b6000602082019050610e846000830184610e60565b92915050565b6000819050919050565b6000610eaf610eaa610ea584610e2e565b610e8a565b610e2e565b9050919050565b6000610ec182610e94565b9050919050565b6000610ed382610eb6565b9050919050565b610ee381610ec8565b82525050565b6000602082019050610efe6000830184610eda565b92915050565b600060a082019050610f196000830188610d88565b610f266020830187610d88565b610f336040830186610d88565b610f406060830185610d88565b610f4d6080830184610da3565b9695505050505050565b610f6081610d97565b8114610f6b57600080fd5b50565b600081359050610f7d81610f57565b92915050565b60008060408385031215610f9a57610f99610d20565b5b6000610fa885828601610d46565b9250506020610fb985828601610f6e565b9150509250929050565b6000610fce82610eb6565b9050919050565b610fde81610fc3565b82525050565b6000602082019050610ff96000830184610fd5565b92915050565b61100881610e4e565b811461101357600080fd5b50565b60008135905061102581610fff565b92915050565b60006020828403121561104157611040610d20565b5b600061104f84828501611016565b91505092915050565b600082825260208201905092915050565b7f566f74696e6720706572696f64206e6f74206f76657200000000000000000000600082015250565b600061109f601683611058565b91506110aa82611069565b602082019050919050565b600060208201905081810360008301526110ce81611092565b9050919050565b7f50726f706f73616c20616c726561647920657865637574656400000000000000600082015250565b600061110b601983611058565b9150611116826110d5565b602082019050919050565b6000602082019050818103600083015261113a816110fe565b9050919050565b60008151905061115081610d2f565b92915050565b60006020828403121561116c5761116b610d20565b5b600061117a84828501611141565b91505092915050565b7f4e6f7420656e6f7567682066756e647300000000000000000000000000000000600082015250565b60006111b9601083611058565b91506111c482611183565b602082019050919050565b600060208201905081810360008301526111e8816111ac565b9050919050565b600081905092915050565b50565b600061120a6000836111ef565b9150611215826111fa565b600082019050919050565b600061122b826111fd565b9150819050919050565b7f5472616e73666572206661696c65642e00000000000000000000000000000000600082015250565b600061126b601083611058565b915061127682611235565b602082019050919050565b6000602082019050818103600083015261129a8161125e565b9050919050565b6000815190506112b081610f57565b92915050565b6000602082840312156112cc576112cb610d20565b5b60006112da848285016112a1565b91505092915050565b7f4e4654206e6f7420666f722073616c6500000000000000000000000000000000600082015250565b6000611319601083611058565b9150611324826112e3565b602082019050919050565b600060208201905081810360008301526113488161130c565b9050919050565b7f4e487b7100000000000000000000000000000000000000000000000000000000600052601160045260246000fd5b600061138982610d25565b915061139483610d25565b92508282019050808211156113ac576113ab61134f565b5b92915050565b7f566f74696e6720706572696f642068617320656e646564000000000000000000600082015250565b60006113e8601783611058565b91506113f3826113b2565b602082019050919050565b60006020820190508181036000830152611417816113db565b9050919050565b7f4d757374206f776e206174206c65617374206f6e65204e465420746f20766f7460008201527f6500000000000000000000000000000000000000000000000000000000000000602082015250565b600061147a602183611058565b91506114858261141e565b604082019050919050565b600060208201905081810360008301526114a98161146d565b9050919050565b7f416c726561647920766f74656400000000000000000000000000000000000000600082015250565b60006114e6600d83611058565b91506114f1826114b0565b602082019050919050565b60006020820190508181036000830152611515816114d9565b9050919050565b600061152782610d25565b91507fffffffffffffffffffffffffffffffffffffffffffffffffffffffffffffffff82036115595761155861134f565b5b60018201905091905056fea26469706673582212207bbd4f9543b6a161195de0d846ddcfc6fa523b03aee577add9680ad85bd0601564736f6c63430008180033","opcodes":"PUSH1 0x80 PUSH1 0x40 MSTORE PUSH1 0x40 MLOAD PUSH3 0x1888 CODESIZE SUB DUP1 PUSH3 0x1888 DUP4 CODECOPY DUP2 DUP2 ADD PUSH1 0x40 MSTORE DUP2 ADD SWAP1 PUSH3 0x29 SWAP2 SWAP1 PUSH3 0x269 JUMP JUMPDEST CALLER PUSH1 0x0 PUSH20 0xFFFFFFFFFFFFFFFFFFFFFFFFFFFFFFFFFFFFFFFF AND DUP2 PUSH20 0xFFFFFFFFFFFFFFFFFFFFFFFFFFFFFFFFFFFFFFFF AND SUB PUSH3 0x9F JUMPI PUSH1 0x0 PUSH1 0x40 MLOAD PUSH32 0x1E4FBDF700000000000000000000000000000000000000000000000000000000 DUP2 MSTORE PUSH1 0x4 ADD PUSH3 0x96 SWAP2 SWAP1 PUSH3 0x2C1 JUMP JUMPDEST PUSH1 0x40 MLOAD DUP1 SWAP2 SUB SWAP1 REVERT JUMPDEST PUSH3 0xB0 DUP2 PUSH3 0x13B PUSH1 0x20 SHL PUSH1 0x20 SHR JUMP JUMPDEST POP DUP2 PUSH1 0x2 PUSH1 0x0 PUSH2 0x100 EXP DUP2 SLOAD DUP2 PUSH20 0xFFFFFFFFFFFFFFFFFFFFFFFFFFFFFFFFFFFFFFFF MUL NOT AND SWAP1 DUP4 PUSH20 0xFFFFFFFFFFFFFFFFFFFFFFFFFFFFFFFFFFFFFFFF AND MUL OR SWAP1 SSTORE POP DUP1 PUSH1 0x3 PUSH1 0x0 PUSH2 0x100 EXP DUP2 SLOAD DUP2 PUSH20 0xFFFFFFFFFFFFFFFFFFFFFFFFFFFFFFFFFFFFFFFF MUL NOT AND SWAP1 DUP4 PUSH20 0xFFFFFFFFFFFFFFFFFFFFFFFFFFFFFFFFFFFFFFFF AND MUL OR SWAP1 SSTORE POP POP POP PUSH3 0x2DE JUMP JUMPDEST PUSH1 0x0 DUP1 PUSH1 0x0 SWAP1 SLOAD SWAP1 PUSH2 0x100 EXP SWAP1 DIV PUSH20 0xFFFFFFFFFFFFFFFFFFFFFFFFFFFFFFFFFFFFFFFF AND SWAP1 POP DUP2 PUSH1 0x0 DUP1 PUSH2 0x100 EXP DUP2 SLOAD DUP2 PUSH20 0xFFFFFFFFFFFFFFFFFFFFFFFFFFFFFFFFFFFFFFFF MUL NOT AND SWAP1 DUP4 PUSH20 0xFFFFFFFFFFFFFFFFFFFFFFFFFFFFFFFFFFFFFFFF AND MUL OR SWAP1 SSTORE POP DUP2 PUSH20 0xFFFFFFFFFFFFFFFFFFFFFFFFFFFFFFFFFFFFFFFF AND DUP2 PUSH20 0xFFFFFFFFFFFFFFFFFFFFFFFFFFFFFFFFFFFFFFFF AND PUSH32 0x8BE0079C531659141344CD1FD0A4F28419497F9722A3DAAFE3B4186F6B6457E0 PUSH1 0x40 MLOAD PUSH1 0x40 MLOAD DUP1 SWAP2 SUB SWAP1 LOG3 POP POP JUMP JUMPDEST PUSH1 0x0 DUP1 REVERT JUMPDEST PUSH1 0x0 PUSH20 0xFFFFFFFFFFFFFFFFFFFFFFFFFFFFFFFFFFFFFFFF DUP3 AND SWAP1 POP SWAP2 SWAP1 POP JUMP JUMPDEST PUSH1 0x0 PUSH3 0x231 DUP3 PUSH3 0x204 JUMP JUMPDEST SWAP1 POP SWAP2 SWAP1 POP JUMP JUMPDEST PUSH3 0x243 DUP2 PUSH3 0x224 JUMP JUMPDEST DUP2 EQ PUSH3 0x24F JUMPI PUSH1 0x0 DUP1 REVERT JUMPDEST POP JUMP JUMPDEST PUSH1 0x0 DUP2 MLOAD SWAP1 POP PUSH3 0x263 DUP2 PUSH3 0x238 JUMP JUMPDEST SWAP3 SWAP2 POP POP JUMP JUMPDEST PUSH1 0x0 DUP1 PUSH1 0x40 DUP4 DUP6 SUB SLT ISZERO PUSH3 0x283 JUMPI PUSH3 0x282 PUSH3 0x1FF JUMP JUMPDEST JUMPDEST PUSH1 0x0 PUSH3 0x293 DUP6 DUP3 DUP7 ADD PUSH3 0x252 JUMP JUMPDEST SWAP3 POP POP PUSH1 0x20 PUSH3 0x2A6 DUP6 DUP3 DUP7 ADD PUSH3 0x252 JUMP JUMPDEST SWAP2 POP POP SWAP3 POP SWAP3 SWAP1 POP JUMP JUMPDEST PUSH3 0x2BB DUP2 PUSH3 0x224 JUMP JUMPDEST DUP3 MSTORE POP POP JUMP JUMPDEST PUSH1 0x0 PUSH1 0x20 DUP3 ADD SWAP1 POP PUSH3 0x2D8 PUSH1 0x0 DUP4 ADD DUP5 PUSH3 0x2B0 JUMP JUMPDEST SWAP3 SWAP2 POP POP JUMP JUMPDEST PUSH2 0x159A DUP1 PUSH3 0x2EE PUSH1 0x0 CODECOPY PUSH1 0x0 RETURN INVALID PUSH1 0x80 PUSH1 0x40 MSTORE PUSH1 0x4 CALLDATASIZE LT PUSH2 0xAB JUMPI PUSH1 0x0 CALLDATALOAD PUSH1 0xE0 SHR DUP1 PUSH4 0xABC8C7AF GT PUSH2 0x64 JUMPI DUP1 PUSH4 0xABC8C7AF EQ PUSH2 0x1B5 JUMPI DUP1 PUSH4 0xC7F758A8 EQ PUSH2 0x1E0 JUMPI DUP1 PUSH4 0xC9D27AFE EQ PUSH2 0x221 JUMPI DUP1 PUSH4 0xD56D229D EQ PUSH2 0x24A JUMPI DUP1 PUSH4 0xDA35C664 EQ PUSH2 0x275 JUMPI DUP1 PUSH4 0xF2FDE38B EQ PUSH2 0x2A0 JUMPI PUSH2 0xB2 JUMP JUMPDEST DUP1 PUSH4 0x13CF08B EQ PUSH2 0xB4 JUMPI DUP1 PUSH4 0xD61B519 EQ PUSH2 0xF6 JUMPI DUP1 PUSH4 0x3CCFD60B EQ PUSH2 0x11F JUMPI DUP1 PUSH4 0x5A43DC00 EQ PUSH2 0x136 JUMPI DUP1 PUSH4 0x715018A6 EQ PUSH2 0x173 JUMPI DUP1 PUSH4 0x8DA5CB5B EQ PUSH2 0x18A JUMPI PUSH2 0xB2 JUMP JUMPDEST CALLDATASIZE PUSH2 0xB2 JUMPI STOP JUMPDEST STOP JUMPDEST CALLVALUE DUP1 ISZERO PUSH2 0xC0 JUMPI PUSH1 0x0 DUP1 REVERT JUMPDEST POP PUSH2 0xDB PUSH1 0x4 DUP1 CALLDATASIZE SUB DUP2 ADD SWAP1 PUSH2 0xD6 SWAP2 SWAP1 PUSH2 0xD5B JUMP JUMPDEST PUSH2 0x2C9 JUMP JUMPDEST PUSH1 0x40 MLOAD PUSH2 0xED SWAP7 SWAP6 SWAP5 SWAP4 SWAP3 SWAP2 SWAP1 PUSH2 0xDB2 JUMP JUMPDEST PUSH1 0x40 MLOAD DUP1 SWAP2 SUB SWAP1 RETURN JUMPDEST CALLVALUE DUP1 ISZERO PUSH2 0x102 JUMPI PUSH1 0x0 DUP1 REVERT JUMPDEST POP PUSH2 0x11D PUSH1 0x4 DUP1 CALLDATASIZE SUB DUP2 ADD SWAP1 PUSH2 0x118 SWAP2 SWAP1 PUSH2 0xD5B JUMP JUMPDEST PUSH2 0x312 JUMP JUMPDEST STOP JUMPDEST CALLVALUE DUP1 ISZERO PUSH2 0x12B JUMPI PUSH1 0x0 DUP1 REVERT JUMPDEST POP PUSH2 0x134 PUSH2 0x5E8 JUMP JUMPDEST STOP JUMPDEST CALLVALUE DUP1 ISZERO PUSH2 0x142 JUMPI PUSH1 0x0 DUP1 REVERT JUMPDEST POP PUSH2 0x15D PUSH1 0x4 DUP1 CALLDATASIZE SUB DUP2 ADD SWAP1 PUSH2 0x158 SWAP2 SWAP1 PUSH2 0xD5B JUMP JUMPDEST PUSH2 0x6AC JUMP JUMPDEST PUSH1 0x40 MLOAD PUSH2 0x16A SWAP2 SWAP1 PUSH2 0xE13 JUMP JUMPDEST PUSH1 0x40 MLOAD DUP1 SWAP2 SUB SWAP1 RETURN JUMPDEST CALLVALUE DUP1 ISZERO PUSH2 0x17F JUMPI PUSH1 0x0 DUP1 REVERT JUMPDEST POP PUSH2 0x188 PUSH2 0x7F2 JUMP JUMPDEST STOP JUMPDEST CALLVALUE DUP1 ISZERO PUSH2 0x196 JUMPI PUSH1 0x0 DUP1 REVERT JUMPDEST POP PUSH2 0x19F PUSH2 0x806 JUMP JUMPDEST PUSH1 0x40 MLOAD PUSH2 0x1AC SWAP2 SWAP1 PUSH2 0xE6F JUMP JUMPDEST PUSH1 0x40 MLOAD DUP1 SWAP2 SUB SWAP1 RETURN JUMPDEST CALLVALUE DUP1 ISZERO PUSH2 0x1C1 JUMPI PUSH1 0x0 DUP1 REVERT JUMPDEST POP PUSH2 0x1CA PUSH2 0x82F JUMP JUMPDEST PUSH1 0x40 MLOAD PUSH2 0x1D7 SWAP2 SWAP1 PUSH2 0xEE9 JUMP JUMPDEST PUSH1 0x40 MLOAD DUP1 SWAP2 SUB SWAP1 RETURN JUMPDEST CALLVALUE DUP1 ISZERO PUSH2 0x1EC JUMPI PUSH1 0x0 DUP1 REVERT JUMPDEST POP PUSH2 0x207 PUSH1 0x4 DUP1 CALLDATASIZE SUB DUP2 ADD SWAP1 PUSH2 0x202 SWAP2 SWAP1 PUSH2 0xD5B JUMP JUMPDEST PUSH2 0x855 JUMP JUMPDEST PUSH1 0x40 MLOAD PUSH2 0x218 SWAP6 SWAP5 SWAP4 SWAP3 SWAP2 SWAP1 PUSH2 0xF04 JUMP JUMPDEST PUSH1 0x40 MLOAD DUP1 SWAP2 SUB SWAP1 RETURN JUMPDEST CALLVALUE DUP1 ISZERO PUSH2 0x22D JUMPI PUSH1 0x0 DUP1 REVERT JUMPDEST POP PUSH2 0x248 PUSH1 0x4 DUP1 CALLDATASIZE SUB DUP2 ADD SWAP1 PUSH2 0x243 SWAP2 SWAP1 PUSH2 0xF83 JUMP JUMPDEST PUSH2 0x8AD JUMP JUMPDEST STOP JUMPDEST CALLVALUE DUP1 ISZERO PUSH2 0x256 JUMPI PUSH1 0x0 DUP1 REVERT JUMPDEST POP PUSH2 0x25F PUSH2 0xB17 JUMP JUMPDEST PUSH1 0x40 MLOAD PUSH2 0x26C SWAP2 SWAP1 PUSH2 0xFE4 JUMP JUMPDEST PUSH1 0x40 MLOAD DUP1 SWAP2 SUB SWAP1 RETURN JUMPDEST CALLVALUE DUP1 ISZERO PUSH2 0x281 JUMPI PUSH1 0x0 DUP1 REVERT JUMPDEST POP PUSH2 0x28A PUSH2 0xB3D JUMP JUMPDEST PUSH1 0x40 MLOAD PUSH2 0x297 SWAP2 SWAP1 PUSH2 0xE13 JUMP JUMPDEST PUSH1 0x40 MLOAD DUP1 SWAP2 SUB SWAP1 RETURN JUMPDEST CALLVALUE DUP1 ISZERO PUSH2 0x2AC JUMPI PUSH1 0x0 DUP1 REVERT JUMPDEST POP PUSH2 0x2C7 PUSH1 0x4 DUP1 CALLDATASIZE SUB DUP2 ADD SWAP1 PUSH2 0x2C2 SWAP2 SWAP1 PUSH2 0x102B JUMP JUMPDEST PUSH2 0xB47 JUMP JUMPDEST STOP JUMPDEST PUSH1 0x1 PUSH1 0x20 MSTORE DUP1 PUSH1 0x0 MSTORE PUSH1 0x40 PUSH1 0x0 KECCAK256 PUSH1 0x0 SWAP2 POP SWAP1 POP DUP1 PUSH1 0x0 ADD SLOAD SWAP1 DUP1 PUSH1 0x1 ADD SLOAD SWAP1 DUP1 PUSH1 0x2 ADD SLOAD SWAP1 DUP1 PUSH1 0x3 ADD SLOAD SWAP1 DUP1 PUSH1 0x4 ADD SLOAD SWAP1 DUP1 PUSH1 0x5 ADD PUSH1 0x0 SWAP1 SLOAD SWAP1 PUSH2 0x100 EXP SWAP1 DIV PUSH1 0xFF AND SWAP1 POP DUP7 JUMP JUMPDEST PUSH1 0x0 PUSH1 0x1 PUSH1 0x0 DUP4 DUP2 MSTORE PUSH1 0x20 ADD SWAP1 DUP2 MSTORE PUSH1 0x20 ADD PUSH1 0x0 KECCAK256 SWAP1 POP DUP1 PUSH1 0x2 ADD SLOAD TIMESTAMP GT PUSH2 0x36F JUMPI PUSH1 0x40 MLOAD PUSH32 0x8C379A000000000000000000000000000000000000000000000000000000000 DUP2 MSTORE PUSH1 0x4 ADD PUSH2 0x366 SWAP1 PUSH2 0x10B5 JUMP JUMPDEST PUSH1 0x40 MLOAD DUP1 SWAP2 SUB SWAP1 REVERT JUMPDEST DUP1 PUSH1 0x5 ADD PUSH1 0x0 SWAP1 SLOAD SWAP1 PUSH2 0x100 EXP SWAP1 DIV PUSH1 0xFF AND ISZERO PUSH2 0x3C1 JUMPI PUSH1 0x40 MLOAD PUSH32 0x8C379A000000000000000000000000000000000000000000000000000000000 DUP2 MSTORE PUSH1 0x4 ADD PUSH2 0x3B8 SWAP1 PUSH2 0x1121 JUMP JUMPDEST PUSH1 0x40 MLOAD DUP1 SWAP2 SUB SWAP1 REVERT JUMPDEST PUSH1 0x1 DUP2 PUSH1 0x5 ADD PUSH1 0x0 PUSH2 0x100 EXP DUP2 SLOAD DUP2 PUSH1 0xFF MUL NOT AND SWAP1 DUP4 ISZERO ISZERO MUL OR SWAP1 SSTORE POP DUP1 PUSH1 0x4 ADD SLOAD DUP2 PUSH1 0x3 ADD SLOAD GT ISZERO PUSH2 0x5E4 JUMPI PUSH1 0x3 PUSH1 0x0 SWAP1 SLOAD SWAP1 PUSH2 0x100 EXP SWAP1 DIV PUSH20 0xFFFFFFFFFFFFFFFFFFFFFFFFFFFFFFFFFFFFFFFF AND PUSH20 0xFFFFFFFFFFFFFFFFFFFFFFFFFFFFFFFFFFFFFFFF AND PUSH4 0x98D5FDCA PUSH1 0x40 MLOAD DUP2 PUSH4 0xFFFFFFFF AND PUSH1 0xE0 SHL DUP2 MSTORE PUSH1 0x4 ADD PUSH1 0x20 PUSH1 0x40 MLOAD DUP1 DUP4 SUB DUP2 DUP7 GAS STATICCALL ISZERO DUP1 ISZERO PUSH2 0x45B JUMPI RETURNDATASIZE PUSH1 0x0 DUP1 RETURNDATACOPY RETURNDATASIZE PUSH1 0x0 REVERT JUMPDEST POP POP POP POP PUSH1 0x40 MLOAD RETURNDATASIZE PUSH1 0x1F NOT PUSH1 0x1F DUP3 ADD AND DUP3 ADD DUP1 PUSH1 0x40 MSTORE POP DUP2 ADD SWAP1 PUSH2 0x47F SWAP2 SWAP1 PUSH2 0x1156 JUMP JUMPDEST SELFBALANCE LT ISZERO PUSH2 0x4C1 JUMPI PUSH1 0x40 MLOAD PUSH32 0x8C379A000000000000000000000000000000000000000000000000000000000 DUP2 MSTORE PUSH1 0x4 ADD PUSH2 0x4B8 SWAP1 PUSH2 0x11CF JUMP JUMPDEST PUSH1 0x40 MLOAD DUP1 SWAP2 SUB SWAP1 REVERT JUMPDEST PUSH1 0x3 PUSH1 0x0 SWAP1 SLOAD SWAP1 PUSH2 0x100 EXP SWAP1 DIV PUSH20 0xFFFFFFFFFFFFFFFFFFFFFFFFFFFFFFFFFFFFFFFF AND PUSH20 0xFFFFFFFFFFFFFFFFFFFFFFFFFFFFFFFFFFFFFFFF AND PUSH4 0xEFEF39A1 PUSH1 0x3 PUSH1 0x0 SWAP1 SLOAD SWAP1 PUSH2 0x100 EXP SWAP1 DIV PUSH20 0xFFFFFFFFFFFFFFFFFFFFFFFFFFFFFFFFFFFFFFFF AND PUSH20 0xFFFFFFFFFFFFFFFFFFFFFFFFFFFFFFFFFFFFFFFF AND PUSH4 0x98D5FDCA PUSH1 0x40 MLOAD DUP2 PUSH4 0xFFFFFFFF AND PUSH1 0xE0 SHL DUP2 MSTORE PUSH1 0x4 ADD PUSH1 0x20 PUSH1 0x40 MLOAD DUP1 DUP4 SUB DUP2 DUP7 GAS STATICCALL ISZERO DUP1 ISZERO PUSH2 0x56C JUMPI RETURNDATASIZE PUSH1 0x0 DUP1 RETURNDATACOPY RETURNDATASIZE PUSH1 0x0 REVERT JUMPDEST POP POP POP POP PUSH1 0x40 MLOAD RETURNDATASIZE PUSH1 0x1F NOT PUSH1 0x1F DUP3 ADD AND DUP3 ADD DUP1 PUSH1 0x40 MSTORE POP DUP2 ADD SWAP1 PUSH2 0x590 SWAP2 SWAP1 PUSH2 0x1156 JUMP JUMPDEST DUP4 PUSH1 0x1 ADD SLOAD PUSH1 0x40 MLOAD DUP4 PUSH4 0xFFFFFFFF AND PUSH1 0xE0 SHL DUP2 MSTORE PUSH1 0x4 ADD PUSH2 0x5B1 SWAP2 SWAP1 PUSH2 0xE13 JUMP JUMPDEST PUSH1 0x0 PUSH1 0x40 MLOAD DUP1 DUP4 SUB DUP2 DUP6 DUP9 DUP1 EXTCODESIZE ISZERO DUP1 ISZERO PUSH2 0x5CA JUMPI PUSH1 0x0 DUP1 REVERT JUMPDEST POP GAS CALL ISZERO DUP1 ISZERO PUSH2 0x5DE JUMPI RETURNDATASIZE PUSH1 0x0 DUP1 RETURNDATACOPY RETURNDATASIZE PUSH1 0x0 REVERT JUMPDEST POP POP POP POP POP JUMPDEST POP POP JUMP JUMPDEST PUSH2 0x5F0 PUSH2 0xBCD JUMP JUMPDEST PUSH1 0x0 SELFBALANCE SWAP1 POP PUSH1 0x0 PUSH2 0x5FF PUSH2 0x806 JUMP JUMPDEST PUSH20 0xFFFFFFFFFFFFFFFFFFFFFFFFFFFFFFFFFFFFFFFF AND DUP3 PUSH1 0x40 MLOAD PUSH2 0x622 SWAP1 PUSH2 0x1220 JUMP JUMPDEST PUSH1 0x0 PUSH1 0x40 MLOAD DUP1 DUP4 SUB DUP2 DUP6 DUP8 GAS CALL SWAP3 POP POP POP RETURNDATASIZE DUP1 PUSH1 0x0 DUP2 EQ PUSH2 0x65F JUMPI PUSH1 0x40 MLOAD SWAP2 POP PUSH1 0x1F NOT PUSH1 0x3F RETURNDATASIZE ADD AND DUP3 ADD PUSH1 0x40 MSTORE RETURNDATASIZE DUP3 MSTORE RETURNDATASIZE PUSH1 0x0 PUSH1 0x20 DUP5 ADD RETURNDATACOPY PUSH2 0x664 JUMP JUMPDEST PUSH1 0x60 SWAP2 POP JUMPDEST POP POP SWAP1 POP DUP1 PUSH2 0x6A8 JUMPI PUSH1 0x40 MLOAD PUSH32 0x8C379A000000000000000000000000000000000000000000000000000000000 DUP2 MSTORE PUSH1 0x4 ADD PUSH2 0x69F SWAP1 PUSH2 0x1281 JUMP JUMPDEST PUSH1 0x40 MLOAD DUP1 SWAP2 SUB SWAP1 REVERT JUMPDEST POP POP JUMP JUMPDEST PUSH1 0x0 PUSH1 0x3 PUSH1 0x0 SWAP1 SLOAD SWAP1 PUSH2 0x100 EXP SWAP1 DIV PUSH20 0xFFFFFFFFFFFFFFFFFFFFFFFFFFFFFFFFFFFFFFFF AND PUSH20 0xFFFFFFFFFFFFFFFFFFFFFFFFFFFFFFFFFFFFFFFF AND PUSH4 0x96E494E8 DUP4 PUSH1 0x40 MLOAD DUP3 PUSH4 0xFFFFFFFF AND PUSH1 0xE0 SHL DUP2 MSTORE PUSH1 0x4 ADD PUSH2 0x709 SWAP2 SWAP1 PUSH2 0xE13 JUMP JUMPDEST PUSH1 0x20 PUSH1 0x40 MLOAD DUP1 DUP4 SUB DUP2 DUP7 GAS STATICCALL ISZERO DUP1 ISZERO PUSH2 0x726 JUMPI RETURNDATASIZE PUSH1 0x0 DUP1 RETURNDATACOPY RETURNDATASIZE PUSH1 0x0 REVERT JUMPDEST POP POP POP POP PUSH1 0x40 MLOAD RETURNDATASIZE PUSH1 0x1F NOT PUSH1 0x1F DUP3 ADD AND DUP3 ADD DUP1 PUSH1 0x40 MSTORE POP DUP2 ADD SWAP1 PUSH2 0x74A SWAP2 SWAP1 PUSH2 0x12B6 JUMP JUMPDEST PUSH2 0x789 JUMPI PUSH1 0x40 MLOAD PUSH32 0x8C379A000000000000000000000000000000000000000000000000000000000 DUP2 MSTORE PUSH1 0x4 ADD PUSH2 0x780 SWAP1 PUSH2 0x132F JUMP JUMPDEST PUSH1 0x40 MLOAD DUP1 SWAP2 SUB SWAP1 REVERT JUMPDEST PUSH1 0x1 PUSH1 0x4 PUSH1 0x0 DUP3 DUP3 SLOAD PUSH2 0x79C SWAP2 SWAP1 PUSH2 0x137E JUMP JUMPDEST SWAP3 POP POP DUP2 SWAP1 SSTORE POP PUSH1 0x0 PUSH1 0x1 PUSH1 0x0 PUSH1 0x4 SLOAD DUP2 MSTORE PUSH1 0x20 ADD SWAP1 DUP2 MSTORE PUSH1 0x20 ADD PUSH1 0x0 KECCAK256 SWAP1 POP PUSH1 0x4 SLOAD DUP2 PUSH1 0x0 ADD DUP2 SWAP1 SSTORE POP DUP3 DUP2 PUSH1 0x1 ADD DUP2 SWAP1 SSTORE POP PUSH3 0x93A80 TIMESTAMP PUSH2 0x7DF SWAP2 SWAP1 PUSH2 0x137E JUMP JUMPDEST DUP2 PUSH1 0x2 ADD DUP2 SWAP1 SSTORE POP PUSH1 0x4 SLOAD SWAP2 POP POP SWAP2 SWAP1 POP JUMP JUMPDEST PUSH2 0x7FA PUSH2 0xBCD JUMP JUMPDEST PUSH2 0x804 PUSH1 0x0 PUSH2 0xC54 JUMP JUMPDEST JUMP JUMPDEST PUSH1 0x0 DUP1 PUSH1 0x0 SWAP1 SLOAD SWAP1 PUSH2 0x100 EXP SWAP1 DIV PUSH20 0xFFFFFFFFFFFFFFFFFFFFFFFFFFFFFFFFFFFFFFFF AND SWAP1 POP SWAP1 JUMP JUMPDEST PUSH1 0x3 PUSH1 0x0 SWAP1 SLOAD SWAP1 PUSH2 0x100 EXP SWAP1 DIV PUSH20 0xFFFFFFFFFFFFFFFFFFFFFFFFFFFFFFFFFFFFFFFF AND DUP2 JUMP JUMPDEST PUSH1 0x0 DUP1 PUSH1 0x0 DUP1 PUSH1 0x0 DUP1 PUSH1 0x1 PUSH1 0x0 DUP9 DUP2 MSTORE PUSH1 0x20 ADD SWAP1 DUP2 MSTORE PUSH1 0x20 ADD PUSH1 0x0 KECCAK256 SWAP1 POP DUP1 PUSH1 0x0 ADD SLOAD DUP2 PUSH1 0x1 ADD SLOAD DUP3 PUSH1 0x3 ADD SLOAD DUP4 PUSH1 0x4 ADD SLOAD DUP5 PUSH1 0x5 ADD PUSH1 0x0 SWAP1 SLOAD SWAP1 PUSH2 0x100 EXP SWAP1 DIV PUSH1 0xFF AND SWAP6 POP SWAP6 POP SWAP6 POP SWAP6 POP SWAP6 POP POP SWAP2 SWAP4 SWAP6 SWAP1 SWAP3 SWAP5 POP JUMP JUMPDEST PUSH1 0x0 PUSH1 0x1 PUSH1 0x0 DUP5 DUP2 MSTORE PUSH1 0x20 ADD SWAP1 DUP2 MSTORE PUSH1 0x20 ADD PUSH1 0x0 KECCAK256 SWAP1 POP DUP1 PUSH1 0x2 ADD SLOAD TIMESTAMP GT ISZERO PUSH2 0x90B JUMPI PUSH1 0x40 MLOAD PUSH32 0x8C379A000000000000000000000000000000000000000000000000000000000 DUP2 MSTORE PUSH1 0x4 ADD PUSH2 0x902 SWAP1 PUSH2 0x13FE JUMP JUMPDEST PUSH1 0x40 MLOAD DUP1 SWAP2 SUB SWAP1 REVERT JUMPDEST PUSH1 0x0 PUSH1 0x2 PUSH1 0x0 SWAP1 SLOAD SWAP1 PUSH2 0x100 EXP SWAP1 DIV PUSH20 0xFFFFFFFFFFFFFFFFFFFFFFFFFFFFFFFFFFFFFFFF AND PUSH20 0xFFFFFFFFFFFFFFFFFFFFFFFFFFFFFFFFFFFFFFFF AND PUSH4 0x70A08231 CALLER PUSH1 0x40 MLOAD DUP3 PUSH4 0xFFFFFFFF AND PUSH1 0xE0 SHL DUP2 MSTORE PUSH1 0x4 ADD PUSH2 0x968 SWAP2 SWAP1 PUSH2 0xE6F JUMP JUMPDEST PUSH1 0x20 PUSH1 0x40 MLOAD DUP1 DUP4 SUB DUP2 DUP7 GAS STATICCALL ISZERO DUP1 ISZERO PUSH2 0x985 JUMPI RETURNDATASIZE PUSH1 0x0 DUP1 RETURNDATACOPY RETURNDATASIZE PUSH1 0x0 REVERT JUMPDEST POP POP POP POP PUSH1 0x40 MLOAD RETURNDATASIZE PUSH1 0x1F NOT PUSH1 0x1F DUP3 ADD AND DUP3 ADD DUP1 PUSH1 0x40 MSTORE POP DUP2 ADD SWAP1 PUSH2 0x9A9 SWAP2 SWAP1 PUSH2 0x1156 JUMP JUMPDEST GT PUSH2 0x9E9 JUMPI PUSH1 0x40 MLOAD PUSH32 0x8C379A000000000000000000000000000000000000000000000000000000000 DUP2 MSTORE PUSH1 0x4 ADD PUSH2 0x9E0 SWAP1 PUSH2 0x1490 JUMP JUMPDEST PUSH1 0x40 MLOAD DUP1 SWAP2 SUB SWAP1 REVERT JUMPDEST DUP1 PUSH1 0x6 ADD PUSH1 0x0 CALLER PUSH20 0xFFFFFFFFFFFFFFFFFFFFFFFFFFFFFFFFFFFFFFFF AND PUSH20 0xFFFFFFFFFFFFFFFFFFFFFFFFFFFFFFFFFFFFFFFF AND DUP2 MSTORE PUSH1 0x20 ADD SWAP1 DUP2 MSTORE PUSH1 0x20 ADD PUSH1 0x0 KECCAK256 PUSH1 0x0 SWAP1 SLOAD SWAP1 PUSH2 0x100 EXP SWAP1 DIV PUSH1 0xFF AND ISZERO PUSH2 0xA78 JUMPI PUSH1 0x40 MLOAD PUSH32 0x8C379A000000000000000000000000000000000000000000000000000000000 DUP2 MSTORE PUSH1 0x4 ADD PUSH2 0xA6F SWAP1 PUSH2 0x14FC JUMP JUMPDEST PUSH1 0x40 MLOAD DUP1 SWAP2 SUB SWAP1 REVERT JUMPDEST PUSH1 0x1 DUP2 PUSH1 0x6 ADD PUSH1 0x0 CALLER PUSH20 0xFFFFFFFFFFFFFFFFFFFFFFFFFFFFFFFFFFFFFFFF AND PUSH20 0xFFFFFFFFFFFFFFFFFFFFFFFFFFFFFFFFFFFFFFFF AND DUP2 MSTORE PUSH1 0x20 ADD SWAP1 DUP2 MSTORE PUSH1 0x20 ADD PUSH1 0x0 KECCAK256 PUSH1 0x0 PUSH2 0x100 EXP DUP2 SLOAD DUP2 PUSH1 0xFF MUL NOT AND SWAP1 DUP4 ISZERO ISZERO MUL OR SWAP1 SSTORE POP DUP2 ISZERO PUSH2 0xAF7 JUMPI DUP1 PUSH1 0x3 ADD PUSH1 0x0 DUP2 SLOAD DUP1 SWAP3 SWAP2 SWAP1 PUSH2 0xAED SWAP1 PUSH2 0x151C JUMP JUMPDEST SWAP2 SWAP1 POP SSTORE POP PUSH2 0xB12 JUMP JUMPDEST DUP1 PUSH1 0x4 ADD PUSH1 0x0 DUP2 SLOAD DUP1 SWAP3 SWAP2 SWAP1 PUSH2 0xB0C SWAP1 PUSH2 0x151C JUMP JUMPDEST SWAP2 SWAP1 POP SSTORE POP JUMPDEST POP POP POP JUMP JUMPDEST PUSH1 0x2 PUSH1 0x0 SWAP1 SLOAD SWAP1 PUSH2 0x100 EXP SWAP1 DIV PUSH20 0xFFFFFFFFFFFFFFFFFFFFFFFFFFFFFFFFFFFFFFFF AND DUP2 JUMP JUMPDEST PUSH1 0x0 PUSH1 0x4 SLOAD SWAP1 POP SWAP1 JUMP JUMPDEST PUSH2 0xB4F PUSH2 0xBCD JUMP JUMPDEST PUSH1 0x0 PUSH20 0xFFFFFFFFFFFFFFFFFFFFFFFFFFFFFFFFFFFFFFFF AND DUP2 PUSH20 0xFFFFFFFFFFFFFFFFFFFFFFFFFFFFFFFFFFFFFFFF AND SUB PUSH2 0xBC1 JUMPI PUSH1 0x0 PUSH1 0x40 MLOAD PUSH32 0x1E4FBDF700000000000000000000000000000000000000000000000000000000 DUP2 MSTORE PUSH1 0x4 ADD PUSH2 0xBB8 SWAP2 SWAP1 PUSH2 0xE6F JUMP JUMPDEST PUSH1 0x40 MLOAD DUP1 SWAP2 SUB SWAP1 REVERT JUMPDEST PUSH2 0xBCA DUP2 PUSH2 0xC54 JUMP JUMPDEST POP JUMP JUMPDEST PUSH2 0xBD5 PUSH2 0xD18 JUMP JUMPDEST PUSH20 0xFFFFFFFFFFFFFFFFFFFFFFFFFFFFFFFFFFFFFFFF AND PUSH2 0xBF3 PUSH2 0x806 JUMP JUMPDEST PUSH20 0xFFFFFFFFFFFFFFFFFFFFFFFFFFFFFFFFFFFFFFFF AND EQ PUSH2 0xC52 JUMPI PUSH2 0xC16 PUSH2 0xD18 JUMP JUMPDEST PUSH1 0x40 MLOAD PUSH32 0x118CDAA700000000000000000000000000000000000000000000000000000000 DUP2 MSTORE PUSH1 0x4 ADD PUSH2 0xC49 SWAP2 SWAP1 PUSH2 0xE6F JUMP JUMPDEST PUSH1 0x40 MLOAD DUP1 SWAP2 SUB SWAP1 REVERT JUMPDEST JUMP JUMPDEST PUSH1 0x0 DUP1 PUSH1 0x0 SWAP1 SLOAD SWAP1 PUSH2 0x100 EXP SWAP1 DIV PUSH20 0xFFFFFFFFFFFFFFFFFFFFFFFFFFFFFFFFFFFFFFFF AND SWAP1 POP DUP2 PUSH1 0x0 DUP1 PUSH2 0x100 EXP DUP2 SLOAD DUP2 PUSH20 0xFFFFFFFFFFFFFFFFFFFFFFFFFFFFFFFFFFFFFFFF MUL NOT AND SWAP1 DUP4 PUSH20 0xFFFFFFFFFFFFFFFFFFFFFFFFFFFFFFFFFFFFFFFF AND MUL OR SWAP1 SSTORE POP DUP2 PUSH20 0xFFFFFFFFFFFFFFFFFFFFFFFFFFFFFFFFFFFFFFFF AND DUP2 PUSH20 0xFFFFFFFFFFFFFFFFFFFFFFFFFFFFFFFFFFFFFFFF AND PUSH32 0x8BE0079C531659141344CD1FD0A4F28419497F9722A3DAAFE3B4186F6B6457E0 PUSH1 0x40 MLOAD PUSH1 0x40 MLOAD DUP1 SWAP2 SUB SWAP1 LOG3 POP POP JUMP JUMPDEST PUSH1 0x0 CALLER SWAP1 POP SWAP1 JUMP JUMPDEST PUSH1 0x0 DUP1 REVERT JUMPDEST PUSH1 0x0 DUP2 SWAP1 POP SWAP2 SWAP1 POP JUMP JUMPDEST PUSH2 0xD38 DUP2 PUSH2 0xD25 JUMP JUMPDEST DUP2 EQ PUSH2 0xD43 JUMPI PUSH1 0x0 DUP1 REVERT JUMPDEST POP JUMP JUMPDEST PUSH1 0x0 DUP2 CALLDATALOAD SWAP1 POP PUSH2 0xD55 DUP2 PUSH2 0xD2F JUMP JUMPDEST SWAP3 SWAP2 POP POP JUMP JUMPDEST PUSH1 0x0 PUSH1 0x20 DUP3 DUP5 SUB SLT ISZERO PUSH2 0xD71 JUMPI PUSH2 0xD70 PUSH2 0xD20 JUMP JUMPDEST JUMPDEST PUSH1 0x0 PUSH2 0xD7F DUP5 DUP3 DUP6 ADD PUSH2 0xD46 JUMP JUMPDEST SWAP2 POP POP SWAP3 SWAP2 POP POP JUMP JUMPDEST PUSH2 0xD91 DUP2 PUSH2 0xD25 JUMP JUMPDEST DUP3 MSTORE POP POP JUMP JUMPDEST PUSH1 0x0 DUP2 ISZERO ISZERO SWAP1 POP SWAP2 SWAP1 POP JUMP JUMPDEST PUSH2 0xDAC DUP2 PUSH2 0xD97 JUMP JUMPDEST DUP3 MSTORE POP POP JUMP JUMPDEST PUSH1 0x0 PUSH1 0xC0 DUP3 ADD SWAP1 POP PUSH2 0xDC7 PUSH1 0x0 DUP4 ADD DUP10 PUSH2 0xD88 JUMP JUMPDEST PUSH2 0xDD4 PUSH1 0x20 DUP4 ADD DUP9 PUSH2 0xD88 JUMP JUMPDEST PUSH2 0xDE1 PUSH1 0x40 DUP4 ADD DUP8 PUSH2 0xD88 JUMP JUMPDEST PUSH2 0xDEE PUSH1 0x60 DUP4 ADD DUP7 PUSH2 0xD88 JUMP JUMPDEST PUSH2 0xDFB PUSH1 0x80 DUP4 ADD DUP6 PUSH2 0xD88 JUMP JUMPDEST PUSH2 0xE08 PUSH1 0xA0 DUP4 ADD DUP5 PUSH2 0xDA3 JUMP JUMPDEST SWAP8 SWAP7 POP POP POP POP POP POP POP JUMP JUMPDEST PUSH1 0x0 PUSH1 0x20 DUP3 ADD SWAP1 POP PUSH2 0xE28 PUSH1 0x0 DUP4 ADD DUP5 PUSH2 0xD88 JUMP JUMPDEST SWAP3 SWAP2 POP POP JUMP JUMPDEST PUSH1 0x0 PUSH20 0xFFFFFFFFFFFFFFFFFFFFFFFFFFFFFFFFFFFFFFFF DUP3 AND SWAP1 POP SWAP2 SWAP1 POP JUMP JUMPDEST PUSH1 0x0 PUSH2 0xE59 DUP3 PUSH2 0xE2E JUMP JUMPDEST SWAP1 POP SWAP2 SWAP1 POP JUMP JUMPDEST PUSH2 0xE69 DUP2 PUSH2 0xE4E JUMP JUMPDEST DUP3 MSTORE POP POP JUMP JUMPDEST PUSH1 0x0 PUSH1 0x20 DUP3 ADD SWAP1 POP PUSH2 0xE84 PUSH1 0x0 DUP4 ADD DUP5 PUSH2 0xE60 JUMP JUMPDEST SWAP3 SWAP2 POP POP JUMP JUMPDEST PUSH1 0x0 DUP2 SWAP1 POP SWAP2 SWAP1 POP JUMP JUMPDEST PUSH1 0x0 PUSH2 0xEAF PUSH2 0xEAA PUSH2 0xEA5 DUP5 PUSH2 0xE2E JUMP JUMPDEST PUSH2 0xE8A JUMP JUMPDEST PUSH2 0xE2E JUMP JUMPDEST SWAP1 POP SWAP2 SWAP1 POP JUMP JUMPDEST PUSH1 0x0 PUSH2 0xEC1 DUP3 PUSH2 0xE94 JUMP JUMPDEST SWAP1 POP SWAP2 SWAP1 POP JUMP JUMPDEST PUSH1 0x0 PUSH2 0xED3 DUP3 PUSH2 0xEB6 JUMP JUMPDEST SWAP1 POP SWAP2 SWAP1 POP JUMP JUMPDEST PUSH2 0xEE3 DUP2 PUSH2 0xEC8 JUMP JUMPDEST DUP3 MSTORE POP POP JUMP JUMPDEST PUSH1 0x0 PUSH1 0x20 DUP3 ADD SWAP1 POP PUSH2 0xEFE PUSH1 0x0 DUP4 ADD DUP5 PUSH2 0xEDA JUMP JUMPDEST SWAP3 SWAP2 POP POP JUMP JUMPDEST PUSH1 0x0 PUSH1 0xA0 DUP3 ADD SWAP1 POP PUSH2 0xF19 PUSH1 0x0 DUP4 ADD DUP9 PUSH2 0xD88 JUMP JUMPDEST PUSH2 0xF26 PUSH1 0x20 DUP4 ADD DUP8 PUSH2 0xD88 JUMP JUMPDEST PUSH2 0xF33 PUSH1 0x40 DUP4 ADD DUP7 PUSH2 0xD88 JUMP JUMPDEST PUSH2 0xF40 PUSH1 0x60 DUP4 ADD DUP6 PUSH2 0xD88 JUMP JUMPDEST PUSH2 0xF4D PUSH1 0x80 DUP4 ADD DUP5 PUSH2 0xDA3 JUMP JUMPDEST SWAP7 SWAP6 POP POP POP POP POP POP JUMP JUMPDEST PUSH2 0xF60 DUP2 PUSH2 0xD97 JUMP JUMPDEST DUP2 EQ PUSH2 0xF6B JUMPI PUSH1 0x0 DUP1 REVERT JUMPDEST POP JUMP JUMPDEST PUSH1 0x0 DUP2 CALLDATALOAD SWAP1 POP PUSH2 0xF7D DUP2 PUSH2 0xF57 JUMP JUMPDEST SWAP3 SWAP2 POP POP JUMP JUMPDEST PUSH1 0x0 DUP1 PUSH1 0x40 DUP4 DUP6 SUB SLT ISZERO PUSH2 0xF9A JUMPI PUSH2 0xF99 PUSH2 0xD20 JUMP JUMPDEST JUMPDEST PUSH1 0x0 PUSH2 0xFA8 DUP6 DUP3 DUP7 ADD PUSH2 0xD46 JUMP JUMPDEST SWAP3 POP POP PUSH1 0x20 PUSH2 0xFB9 DUP6 DUP3 DUP7 ADD PUSH2 0xF6E JUMP JUMPDEST SWAP2 POP POP SWAP3 POP SWAP3 SWAP1 POP JUMP JUMPDEST PUSH1 0x0 PUSH2 0xFCE DUP3 PUSH2 0xEB6 JUMP JUMPDEST SWAP1 POP SWAP2 SWAP1 POP JUMP JUMPDEST PUSH2 0xFDE DUP2 PUSH2 0xFC3 JUMP JUMPDEST DUP3 MSTORE POP POP JUMP JUMPDEST PUSH1 0x0 PUSH1 0x20 DUP3 ADD SWAP1 POP PUSH2 0xFF9 PUSH1 0x0 DUP4 ADD DUP5 PUSH2 0xFD5 JUMP JUMPDEST SWAP3 SWAP2 POP POP JUMP JUMPDEST PUSH2 0x1008 DUP2 PUSH2 0xE4E JUMP JUMPDEST DUP2 EQ PUSH2 0x1013 JUMPI PUSH1 0x0 DUP1 REVERT JUMPDEST POP JUMP JUMPDEST PUSH1 0x0 DUP2 CALLDATALOAD SWAP1 POP PUSH2 0x1025 DUP2 PUSH2 0xFFF JUMP JUMPDEST SWAP3 SWAP2 POP POP JUMP JUMPDEST PUSH1 0x0 PUSH1 0x20 DUP3 DUP5 SUB SLT ISZERO PUSH2 0x1041 JUMPI PUSH2 0x1040 PUSH2 0xD20 JUMP JUMPDEST JUMPDEST PUSH1 0x0 PUSH2 0x104F DUP5 DUP3 DUP6 ADD PUSH2 0x1016 JUMP JUMPDEST SWAP2 POP POP SWAP3 SWAP2 POP POP JUMP JUMPDEST PUSH1 0x0 DUP3 DUP3 MSTORE PUSH1 0x20 DUP3 ADD SWAP1 POP SWAP3 SWAP2 POP POP JUMP JUMPDEST PUSH32 0x566F74696E6720706572696F64206E6F74206F76657200000000000000000000 PUSH1 0x0 DUP3 ADD MSTORE POP JUMP JUMPDEST PUSH1 0x0 PUSH2 0x109F PUSH1 0x16 DUP4 PUSH2 0x1058 JUMP JUMPDEST SWAP2 POP PUSH2 0x10AA DUP3 PUSH2 0x1069 JUMP JUMPDEST PUSH1 0x20 DUP3 ADD SWAP1 POP SWAP2 SWAP1 POP JUMP JUMPDEST PUSH1 0x0 PUSH1 0x20 DUP3 ADD SWAP1 POP DUP2 DUP2 SUB PUSH1 0x0 DUP4 ADD MSTORE PUSH2 0x10CE DUP2 PUSH2 0x1092 JUMP JUMPDEST SWAP1 POP SWAP2 SWAP1 POP JUMP JUMPDEST PUSH32 0x50726F706F73616C20616C726561647920657865637574656400000000000000 PUSH1 0x0 DUP3 ADD MSTORE POP JUMP JUMPDEST PUSH1 0x0 PUSH2 0x110B PUSH1 0x19 DUP4 PUSH2 0x1058 JUMP JUMPDEST SWAP2 POP PUSH2 0x1116 DUP3 PUSH2 0x10D5 JUMP JUMPDEST PUSH1 0x20 DUP3 ADD SWAP1 POP SWAP2 SWAP1 POP JUMP JUMPDEST PUSH1 0x0 PUSH1 0x20 DUP3 ADD SWAP1 POP DUP2 DUP2 SUB PUSH1 0x0 DUP4 ADD MSTORE PUSH2 0x113A DUP2 PUSH2 0x10FE JUMP JUMPDEST SWAP1 POP SWAP2 SWAP1 POP JUMP JUMPDEST PUSH1 0x0 DUP2 MLOAD SWAP1 POP PUSH2 0x1150 DUP2 PUSH2 0xD2F JUMP JUMPDEST SWAP3 SWAP2 POP POP JUMP JUMPDEST PUSH1 0x0 PUSH1 0x20 DUP3 DUP5 SUB SLT ISZERO PUSH2 0x116C JUMPI PUSH2 0x116B PUSH2 0xD20 JUMP JUMPDEST JUMPDEST PUSH1 0x0 PUSH2 0x117A DUP5 DUP3 DUP6 ADD PUSH2 0x1141 JUMP JUMPDEST SWAP2 POP POP SWAP3 SWAP2 POP POP JUMP JUMPDEST PUSH32 0x4E6F7420656E6F7567682066756E647300000000000000000000000000000000 PUSH1 0x0 DUP3 ADD MSTORE POP JUMP JUMPDEST PUSH1 0x0 PUSH2 0x11B9 PUSH1 0x10 DUP4 PUSH2 0x1058 JUMP JUMPDEST SWAP2 POP PUSH2 0x11C4 DUP3 PUSH2 0x1183 JUMP JUMPDEST PUSH1 0x20 DUP3 ADD SWAP1 POP SWAP2 SWAP1 POP JUMP JUMPDEST PUSH1 0x0 PUSH1 0x20 DUP3 ADD SWAP1 POP DUP2 DUP2 SUB PUSH1 0x0 DUP4 ADD MSTORE PUSH2 0x11E8 DUP2 PUSH2 0x11AC JUMP JUMPDEST SWAP1 POP SWAP2 SWAP1 POP JUMP JUMPDEST PUSH1 0x0 DUP2 SWAP1 POP SWAP3 SWAP2 POP POP JUMP JUMPDEST POP JUMP JUMPDEST PUSH1 0x0 PUSH2 0x120A PUSH1 0x0 DUP4 PUSH2 0x11EF JUMP JUMPDEST SWAP2 POP PUSH2 0x1215 DUP3 PUSH2 0x11FA JUMP JUMPDEST PUSH1 0x0 DUP3 ADD SWAP1 POP SWAP2 SWAP1 POP JUMP JUMPDEST PUSH1 0x0 PUSH2 0x122B DUP3 PUSH2 0x11FD JUMP JUMPDEST SWAP2 POP DUP2 SWAP1 POP SWAP2 SWAP1 POP JUMP JUMPDEST PUSH32 0x5472616E73666572206661696C65642E00000000000000000000000000000000 PUSH1 0x0 DUP3 ADD MSTORE POP JUMP JUMPDEST PUSH1 0x0 PUSH2 0x126B PUSH1 0x10 DUP4 PUSH2 0x1058 JUMP JUMPDEST SWAP2 POP PUSH2 0x1276 DUP3 PUSH2 0x1235 JUMP JUMPDEST PUSH1 0x20 DUP3 ADD SWAP1 POP SWAP2 SWAP1 POP JUMP JUMPDEST PUSH1 0x0 PUSH1 0x20 DUP3 ADD SWAP1 POP DUP2 DUP2 SUB PUSH1 0x0 DUP4 ADD MSTORE PUSH2 0x129A DUP2 PUSH2 0x125E JUMP JUMPDEST SWAP1 POP SWAP2 SWAP1 POP JUMP JUMPDEST PUSH1 0x0 DUP2 MLOAD SWAP1 POP PUSH2 0x12B0 DUP2 PUSH2 0xF57 JUMP JUMPDEST SWAP3 SWAP2 POP POP JUMP JUMPDEST PUSH1 0x0 PUSH1 0x20 DUP3 DUP5 SUB SLT ISZERO PUSH2 0x12CC JUMPI PUSH2 0x12CB PUSH2 0xD20 JUMP JUMPDEST JUMPDEST PUSH1 0x0 PUSH2 0x12DA DUP5 DUP3 DUP6 ADD PUSH2 0x12A1 JUMP JUMPDEST SWAP2 POP POP SWAP3 SWAP2 POP POP JUMP JUMPDEST PUSH32 0x4E4654206E6F7420666F722073616C6500000000000000000000000000000000 PUSH1 0x0 DUP3 ADD MSTORE POP JUMP JUMPDEST PUSH1 0x0 PUSH2 0x1319 PUSH1 0x10 DUP4 PUSH2 0x1058 JUMP JUMPDEST SWAP2 POP PUSH2 0x1324 DUP3 PUSH2 0x12E3 JUMP JUMPDEST PUSH1 0x20 DUP3 ADD SWAP1 POP SWAP2 SWAP1 POP JUMP JUMPDEST PUSH1 0x0 PUSH1 0x20 DUP3 ADD SWAP1 POP DUP2 DUP2 SUB PUSH1 0x0 DUP4 ADD MSTORE PUSH2 0x1348 DUP2 PUSH2 0x130C JUMP JUMPDEST SWAP1 POP SWAP2 SWAP1 POP JUMP JUMPDEST PUSH32 0x4E487B7100000000000000000000000000000000000000000000000000000000 PUSH1 0x0 MSTORE PUSH1 0x11 PUSH1 0x4 MSTORE PUSH1 0x24 PUSH1 0x0 REVERT JUMPDEST PUSH1 0x0 PUSH2 0x1389 DUP3 PUSH2 0xD25 JUMP JUMPDEST SWAP2 POP PUSH2 0x1394 DUP4 PUSH2 0xD25 JUMP JUMPDEST SWAP3 POP DUP3 DUP3 ADD SWAP1 POP DUP1 DUP3 GT ISZERO PUSH2 0x13AC JUMPI PUSH2 0x13AB PUSH2 0x134F JUMP JUMPDEST JUMPDEST SWAP3 SWAP2 POP POP JUMP JUMPDEST PUSH32 0x566F74696E6720706572696F642068617320656E646564000000000000000000 PUSH1 0x0 DUP3 ADD MSTORE POP JUMP JUMPDEST PUSH1 0x0 PUSH2 0x13E8 PUSH1 0x17 DUP4 PUSH2 0x1058 JUMP JUMPDEST SWAP2 POP PUSH2 0x13F3 DUP3 PUSH2 0x13B2 JUMP JUMPDEST PUSH1 0x20 DUP3 ADD SWAP1 POP SWAP2 SWAP1 POP JUMP JUMPDEST PUSH1 0x0 PUSH1 0x20 DUP3 ADD SWAP1 POP DUP2 DUP2 SUB PUSH1 0x0 DUP4 ADD MSTORE PUSH2 0x1417 DUP2 PUSH2 0x13DB JUMP JUMPDEST SWAP1 POP SWAP2 SWAP1 POP JUMP JUMPDEST PUSH32 0x4D757374206F776E206174206C65617374206F6E65204E465420746F20766F74 PUSH1 0x0 DUP3 ADD MSTORE PUSH32 0x6500000000000000000000000000000000000000000000000000000000000000 PUSH1 0x20 DUP3 ADD MSTORE POP JUMP JUMPDEST PUSH1 0x0 PUSH2 0x147A PUSH1 0x21 DUP4 PUSH2 0x1058 JUMP JUMPDEST SWAP2 POP PUSH2 0x1485 DUP3 PUSH2 0x141E JUMP JUMPDEST PUSH1 0x40 DUP3 ADD SWAP1 POP SWAP2 SWAP1 POP JUMP JUMPDEST PUSH1 0x0 PUSH1 0x20 DUP3 ADD SWAP1 POP DUP2 DUP2 SUB PUSH1 0x0 DUP4 ADD MSTORE PUSH2 0x14A9 DUP2 PUSH2 0x146D JUMP JUMPDEST SWAP1 POP SWAP2 SWAP1 POP JUMP JUMPDEST PUSH32 0x416C726561647920766F74656400000000000000000000000000000000000000 PUSH1 0x0 DUP3 ADD MSTORE POP JUMP JUMPDEST PUSH1 0x0 PUSH2 0x14E6 PUSH1 0xD DUP4 PUSH2 0x1058 JUMP JUMPDEST SWAP2 POP PUSH2 0x14F1 DUP3 PUSH2 0x14B0 JUMP JUMPDEST PUSH1 0x20 DUP3 ADD SWAP1 POP SWAP2 SWAP1 POP JUMP JUMPDEST PUSH1 0x0 PUSH1 0x20 DUP3 ADD SWAP1 POP DUP2 DUP2 SUB PUSH1 0x0 DUP4 ADD MSTORE PUSH2 0x1515 DUP2 PUSH2 0x14D9 JUMP JUMPDEST SWAP1 POP SWAP2 SWAP1 POP JUMP JUMPDEST PUSH1 0x0 PUSH2 0x1527 DUP3 PUSH2 0xD25 JUMP JUMPDEST SWAP2 POP PUSH32 0xFFFFFFFFFFFFFFFFFFFFFFFFFFFFFFFFFFFFFFFFFFFFFFFFFFFFFFFFFFFFFFFF DUP3 SUB PUSH2 0x1559 JUMPI PUSH2 0x1558 PUSH2 0x134F JUMP JUMPDEST JUMPDEST PUSH1 0x1 DUP3 ADD SWAP1 POP SWAP2 SWAP1 POP JUMP INVALID LOG2 PUSH5 0x6970667358 0x22 SLT KECCAK256 PUSH28 0xBD4F9543B6A161195DE0D846DDCFC6FA523B03AEE577ADD9680AD85B 0xD0 PUSH1 0x15 PUSH5 0x736F6C6343 STOP ADDMOD XOR STOP CALLER "},"methodIdentifiers":{"createProposal(uint256)":"5a43dc00","executeProposal(uint256)":"0d61b519","getProposal(uint256)":"c7f758a8","marketplace()":"abc8c7af","nftContract()":"d56d229d","owner()":"8da5cb5b","proposalCount()":"da35c664","proposals(uint256)":"013cf08b","renounceOwnership()":"715018a6","transferOwnership(address)":"f2fde38b","vote(uint256,bool)":"c9d27afe","withdraw()":"3ccfd60b"}}}}}