{
  "_format": "hh-sol-artifact-1",
  "contractName": "CryptoDevsDAO",
  "sourceName": "contracts/CryptoDevsDao.sol",
  "abi": [
    {
      "inputs": [
        {
          "internalType": "address",
          "name": "_nftContract",
          "type": "address"
        },
        {
          "internalType": "address",
          "name": "_marketplace",
          "type": "address"
        }
      ],
      "stateMutability": "payable",
      "type": "constructor"
    },
    {
      "inputs": [
        {
          "internalType": "address",
          "name": "owner",
          "type": "address"
        }
      ],
      "name": "OwnableInvalidOwner",
      "type": "error"
    },
    {
      "inputs": [
        {
          "internalType": "address",
          "name": "account",
          "type": "address"
        }
      ],
      "name": "OwnableUnauthorizedAccount",
      "type": "error"
    },
    {
      "anonymous": false,
      "inputs": [
        {
          "indexed": true,
          "internalType": "address",
          "name": "previousOwner",
          "type": "address"
        },
        {
          "indexed": true,
          "internalType": "address",
          "name": "newOwner",
          "type": "address"
        }
      ],
      "name": "OwnershipTransferred",
      "type": "event"
    },
    {
      "stateMutability": "payable",
      "type": "fallback"
    },
    {
      "inputs": [
        {
          "internalType": "uint256",
          "name": "_nftTokenId",
          "type": "uint256"
        }
      ],
      "name": "createProposal",
      "outputs": [
        {
          "internalType": "uint256",
          "name": "",
          "type": "uint256"
        }
      ],
      "stateMutability": "nonpayable",
      "type": "function"
    },
    {
      "inputs": [
        {
          "internalType": "uint256",
          "name": "proposalId",
          "type": "uint256"
        }
      ],
      "name": "executeProposal",
      "outputs": [],
      "stateMutability": "nonpayable",
      "type": "function"
    },
    {
      "inputs": [
        {
          "internalType": "uint256",
          "name": "_proposalId",
          "type": "uint256"
        }
      ],
      "name": "getProposal",
      "outputs": [
        {
          "internalType": "uint256",
          "name": "id",
          "type": "uint256"
        },
        {
          "internalType": "uint256",
          "name": "nftTokenId",
          "type": "uint256"
        },
        {
          "internalType": "uint256",
          "name": "votesFor",
          "type": "uint256"
        },
        {
          "internalType": "uint256",
          "name": "votesAgainst",
          "type": "uint256"
        },
        {
          "internalType": "bool",
          "name": "executed",
          "type": "bool"
        }
      ],
      "stateMutability": "view",
      "type": "function"
    },
    {
      "inputs": [],
      "name": "marketplace",
      "outputs": [
        {
          "internalType": "contract IFakeNFTMarketplace",
          "name": "",
          "type": "address"
        }
      ],
      "stateMutability": "view",
      "type": "function"
    },
    {
      "inputs": [],
      "name": "nftContract",
      "outputs": [
        {
          "internalType": "contract ICryptoDevsNFT",
          "name": "",
          "type": "address"
        }
      ],
      "stateMutability": "view",
      "type": "function"
    },
    {
      "inputs": [],
      "name": "owner",
      "outputs": [
        {
          "internalType": "address",
          "name": "",
          "type": "address"
        }
      ],
      "stateMutability": "view",
      "type": "function"
    },
    {
      "inputs": [],
      "name": "proposalCount",
      "outputs": [
        {
          "internalType": "uint256",
          "name": "",
          "type": "uint256"
        }
      ],
      "stateMutability": "view",
      "type": "function"
    },
    {
      "inputs": [
        {
          "internalType": "uint256",
          "name": "",
          "type": "uint256"
        }
      ],
      "name": "proposals",
      "outputs": [
        {
          "internalType": "uint256",
          "name": "id",
          "type": "uint256"
        },
        {
          "internalType": "uint256",
          "name": "nftTokenId",
          "type": "uint256"
        },
        {
          "internalType": "uint256",
          "name": "deadline",
          "type": "uint256"
        },
        {
          "internalType": "uint256",
          "name": "votesFor",
          "type": "uint256"
        },
        {
          "internalType": "uint256",
          "name": "votesAgainst",
          "type": "uint256"
        },
        {
          "internalType": "bool",
          "name": "executed",
          "type": "bool"
        }
      ],
      "stateMutability": "view",
      "type": "function"
    },
    {
      "inputs": [],
      "name": "renounceOwnership",
      "outputs": [],
      "stateMutability": "nonpayable",
      "type": "function"
    },
    {
      "inputs": [
        {
          "internalType": "address",
          "name": "newOwner",
          "type": "address"
        }
      ],
      "name": "transferOwnership",
      "outputs": [],
      "stateMutability": "nonpayable",
      "type": "function"
    },
    {
      "inputs": [
        {
          "internalType": "uint256",
          "name": "proposalId",
          "type": "uint256"
        },
        {
          "internalType": "bool",
          "name": "voteFor",
          "type": "bool"
        }
      ],
      "name": "vote",
      "outputs": [],
      "stateMutability": "nonpayable",
      "type": "function"
    },
    {
      "inputs": [],
      "name": "withdraw",
      "outputs": [],
      "stateMutability": "nonpayable",
      "type": "function"
    },
    {
      "stateMutability": "payable",
      "type": "receive"
    }
  ],
  "bytecode": "0x60806040526040516200188838038062001888833981810160405281019062000029919062000269565b33600073ffffffffffffffffffffffffffffffffffffffff168173ffffffffffffffffffffffffffffffffffffffff16036200009f5760006040517f1e4fbdf7000000000000000000000000000000000000000000000000000000008152600401620000969190620002c1565b60405180910390fd5b620000b0816200013b60201b60201c565b5081600260006101000a81548173ffffffffffffffffffffffffffffffffffffffff021916908373ffffffffffffffffffffffffffffffffffffffff16021790555080600360006101000a81548173ffffffffffffffffffffffffffffffffffffffff021916908373ffffffffffffffffffffffffffffffffffffffff1602179055505050620002de565b60008060009054906101000a900473ffffffffffffffffffffffffffffffffffffffff169050816000806101000a81548173ffffffffffffffffffffffffffffffffffffffff021916908373ffffffffffffffffffffffffffffffffffffffff1602179055508173ffffffffffffffffffffffffffffffffffffffff168173ffffffffffffffffffffffffffffffffffffffff167f8be0079c531659141344cd1fd0a4f28419497f9722a3daafe3b4186f6b6457e060405160405180910390a35050565b600080fd5b600073ffffffffffffffffffffffffffffffffffffffff82169050919050565b6000620002318262000204565b9050919050565b620002438162000224565b81146200024f57600080fd5b50565b600081519050620002638162000238565b92915050565b60008060408385031215620002835762000282620001ff565b5b6000620002938582860162000252565b9250506020620002a68582860162000252565b9150509250929050565b620002bb8162000224565b82525050565b6000602082019050620002d86000830184620002b0565b92915050565b61159a80620002ee6000396000f3fe6080604052600436106100ab5760003560e01c8063abc8c7af11610064578063abc8c7af146101b5578063c7f758a8146101e0578063c9d27afe14610221578063d56d229d1461024a578063da35c66414610275578063f2fde38b146102a0576100b2565b8063013cf08b146100b45780630d61b519146100f65780633ccfd60b1461011f5780635a43dc0014610136578063715018a6146101735780638da5cb5b1461018a576100b2565b366100b257005b005b3480156100c057600080fd5b506100db60048036038101906100d69190610d5b565b6102c9565b6040516100ed96959493929190610db2565b60405180910390f35b34801561010257600080fd5b5061011d60048036038101906101189190610d5b565b610312565b005b34801561012b57600080fd5b506101346105e8565b005b34801561014257600080fd5b5061015d60048036038101906101589190610d5b565b6106ac565b60405161016a9190610e13565b60405180910390f35b34801561017f57600080fd5b506101886107f2565b005b34801561019657600080fd5b5061019f610806565b6040516101ac9190610e6f565b60405180910390f35b3480156101c157600080fd5b506101ca61082f565b6040516101d79190610ee9565b60405180910390f35b3480156101ec57600080fd5b5061020760048036038101906102029190610d5b565b610855565b604051610218959493929190610f04565b60405180910390f35b34801561022d57600080fd5b5061024860048036038101906102439190610f83565b6108ad565b005b34801561025657600080fd5b5061025f610b17565b60405161026c9190610fe4565b60405180910390f35b34801561028157600080fd5b5061028a610b3d565b6040516102979190610e13565b60405180910390f35b3480156102ac57600080fd5b506102c760048036038101906102c2919061102b565b610b47565b005b60016020528060005260406000206000915090508060000154908060010154908060020154908060030154908060040154908060050160009054906101000a900460ff16905086565b60006001600083815260200190815260200160002090508060020154421161036f576040517f08c379a0000000000000000000000000000000000000000000000000000000008152600401610366906110b5565b60405180910390fd5b8060050160009054906101000a900460ff16156103c1576040517f08c379a00000000000000000000000000000000000000000000000000000000081526004016103b890611121565b60405180910390fd5b60018160050160006101000a81548160ff0219169083151502179055508060040154816003015411156105e457600360009054906101000a900473ffffffffffffffffffffffffffffffffffffffff1673ffffffffffffffffffffffffffffffffffffffff166398d5fdca6040518163ffffffff1660e01b8152600401602060405180830381865afa15801561045b573d6000803e3d6000fd5b505050506040513d601f19601f8201168201806040525081019061047f9190611156565b4710156104c1576040517f08c379a00000000000000000000000000000000000000000000000000000000081526004016104b8906111cf565b60405180910390fd5b600360009054906101000a900473ffffffffffffffffffffffffffffffffffffffff1673ffffffffffffffffffffffffffffffffffffffff1663efef39a1600360009054906101000a900473ffffffffffffffffffffffffffffffffffffffff1673ffffffffffffffffffffffffffffffffffffffff166398d5fdca6040518163ffffffff1660e01b8152600401602060405180830381865afa15801561056c573d6000803e3d6000fd5b505050506040513d601f19601f820116820180604052508101906105909190611156565b83600101546040518363ffffffff1660e01b81526004016105b19190610e13565b6000604051808303818588803b1580156105ca57600080fd5b505af11580156105de573d6000803e3d6000fd5b50505050505b5050565b6105f0610bcd565b600047905060006105ff610806565b73ffffffffffffffffffffffffffffffffffffffff168260405161062290611220565b60006040518083038185875af1925050503d806000811461065f576040519150601f19603f3d011682016040523d82523d6000602084013e610664565b606091505b50509050806106a8576040517f08c379a000000000000000000000000000000000000000000000000000000000815260040161069f90611281565b60405180910390fd5b5050565b6000600360009054906101000a900473ffffffffffffffffffffffffffffffffffffffff1673ffffffffffffffffffffffffffffffffffffffff166396e494e8836040518263ffffffff1660e01b81526004016107099190610e13565b602060405180830381865afa158015610726573d6000803e3d6000fd5b505050506040513d601f19601f8201168201806040525081019061074a91906112b6565b610789576040517f08c379a00000000000000000000000000000000000000000000000000000000081526004016107809061132f565b60405180910390fd5b60016004600082825461079c919061137e565b9250508190555060006001600060045481526020019081526020016000209050600454816000018190555082816001018190555062093a80426107df919061137e565b8160020181905550600454915050919050565b6107fa610bcd565b6108046000610c54565b565b60008060009054906101000a900473ffffffffffffffffffffffffffffffffffffffff16905090565b600360009054906101000a900473ffffffffffffffffffffffffffffffffffffffff1681565b60008060008060008060016000888152602001908152602001600020905080600001548160010154826003015483600401548460050160009054906101000a900460ff16955095509550955095505091939590929450565b6000600160008481526020019081526020016000209050806002015442111561090b576040517f08c379a0000000000000000000000000000000000000000000000000000000008152600401610902906113fe565b60405180910390fd5b6000600260009054906101000a900473ffffffffffffffffffffffffffffffffffffffff1673ffffffffffffffffffffffffffffffffffffffff166370a08231336040518263ffffffff1660e01b81526004016109689190610e6f565b602060405180830381865afa158015610985573d6000803e3d6000fd5b505050506040513d601f19601f820116820180604052508101906109a99190611156565b116109e9576040517f08c379a00000000000000000000000000000000000000000000000000000000081526004016109e090611490565b60405180910390fd5b8060060160003373ffffffffffffffffffffffffffffffffffffffff1673ffffffffffffffffffffffffffffffffffffffff16815260200190815260200160002060009054906101000a900460ff1615610a78576040517f08c379a0000000000000000000000000000000000000000000000000000000008152600401610a6f906114fc565b60405180910390fd5b60018160060160003373ffffffffffffffffffffffffffffffffffffffff1673ffffffffffffffffffffffffffffffffffffffff16815260200190815260200160002060006101000a81548160ff0219169083151502179055508115610af757806003016000815480929190610aed9061151c565b9190505550610b12565b806004016000815480929190610b0c9061151c565b91905055505b505050565b600260009054906101000a900473ffffffffffffffffffffffffffffffffffffffff1681565b6000600454905090565b610b4f610bcd565b600073ffffffffffffffffffffffffffffffffffffffff168173ffffffffffffffffffffffffffffffffffffffff1603610bc15760006040517f1e4fbdf7000000000000000000000000000000000000000000000000000000008152600401610bb89190610e6f565b60405180910390fd5b610bca81610c54565b50565b610bd5610d18565b73ffffffffffffffffffffffffffffffffffffffff16610bf3610806565b73ffffffffffffffffffffffffffffffffffffffff1614610c5257610c16610d18565b6040517f118cdaa7000000000000000000000000000000000000000000000000000000008152600401610c499190610e6f565b60405180910390fd5b565b60008060009054906101000a900473ffffffffffffffffffffffffffffffffffffffff169050816000806101000a81548173ffffffffffffffffffffffffffffffffffffffff021916908373ffffffffffffffffffffffffffffffffffffffff1602179055508173ffffffffffffffffffffffffffffffffffffffff168173ffffffffffffffffffffffffffffffffffffffff167f8be0079c531659141344cd1fd0a4f28419497f9722a3daafe3b4186f6b6457e060405160405180910390a35050565b600033905090565b600080fd5b6000819050919050565b610d3881610d25565b8114610d4357600080fd5b50565b600081359050610d5581610d2f565b92915050565b600060208284031215610d7157610d70610d20565b5b6000610d7f84828501610d46565b91505092915050565b610d9181610d25565b82525050565b60008115159050919050565b610dac81610d97565b82525050565b600060c082019050610dc76000830189610d88565b610dd46020830188610d88565b610de16040830187610d88565b610dee6060830186610d88565b610dfb6080830185610d88565b610e0860a0830184610da3565b979650505050505050565b6000602082019050610e286000830184610d88565b92915050565b600073ffffffffffffffffffffffffffffffffffffffff82169050919050565b6000610e5982610e2e565b9050919050565b610e6981610e4e565b82525050565b6000602082019050610e846000830184610e60565b92915050565b6000819050919050565b6000610eaf610eaa610ea584610e2e565b610e8a565b610e2e565b9050919050565b6000610ec182610e94565b9050919050565b6000610ed382610eb6565b9050919050565b610ee381610ec8565b82525050565b6000602082019050610efe6000830184610eda565b92915050565b600060a082019050610f196000830188610d88565b610f266020830187610d88565b610f336040830186610d88565b610f406060830185610d88565b610f4d6080830184610da3565b9695505050505050565b610f6081610d97565b8114610f6b57600080fd5b50565b600081359050610f7d81610f57565b92915050565b60008060408385031215610f9a57610f99610d20565b5b6000610fa885828601610d46565b9250506020610fb985828601610f6e565b9150509250929050565b6000610fce82610eb6565b9050919050565b610fde81610fc3565b82525050565b6000602082019050610ff96000830184610fd5565b92915050565b61100881610e4e565b811461101357600080fd5b50565b60008135905061102581610fff565b92915050565b60006020828403121561104157611040610d20565b5b600061104f84828501611016565b91505092915050565b600082825260208201905092915050565b7f566f74696e6720706572696f64206e6f74206f76657200000000000000000000600082015250565b600061109f601683611058565b91506110aa82611069565b602082019050919050565b600060208201905081810360008301526110ce81611092565b9050919050565b7f50726f706f73616c20616c726561647920657865637574656400000000000000600082015250565b600061110b601983611058565b9150611116826110d5565b602082019050919050565b6000602082019050818103600083015261113a816110fe565b9050919050565b60008151905061115081610d2f565b92915050565b60006020828403121561116c5761116b610d20565b5b600061117a84828501611141565b91505092915050565b7f4e6f7420656e6f7567682066756e647300000000000000000000000000000000600082015250565b60006111b9601083611058565b91506111c482611183565b602082019050919050565b600060208201905081810360008301526111e8816111ac565b9050919050565b600081905092915050565b50565b600061120a6000836111ef565b9150611215826111fa565b600082019050919050565b600061122b826111fd565b9150819050919050565b7f5472616e73666572206661696c65642e00000000000000000000000000000000600082015250565b600061126b601083611058565b915061127682611235565b602082019050919050565b6000602082019050818103600083015261129a8161125e565b9050919050565b6000815190506112b081610f57565b92915050565b6000602082840312156112cc576112cb610d20565b5b60006112da848285016112a1565b91505092915050565b7f4e4654206e6f7420666f722073616c6500000000000000000000000000000000600082015250565b6000611319601083611058565b9150611324826112e3565b602082019050919050565b600060208201905081810360008301526113488161130c565b9050919050565b7f4e487b7100000000000000000000000000000000000000000000000000000000600052601160045260246000fd5b600061138982610d25565b915061139483610d25565b92508282019050808211156113ac576113ab61134f565b5b92915050565b7f566f74696e6720706572696f642068617320656e646564000000000000000000600082015250565b60006113e8601783611058565b91506113f3826113b2565b602082019050919050565b60006020820190508181036000830152611417816113db565b9050919050565b7f4d757374206f776e206174206c65617374206f6e65204e465420746f20766f7460008201527f6500000000000000000000000000000000000000000000000000000000000000602082015250565b600061147a602183611058565b91506114858261141e565b604082019050919050565b600060208201905081810360008301526114a98161146d565b9050919050565b7f416c726561647920766f74656400000000000000000000000000000000000000600082015250565b60006114e6600d83611058565b91506114f1826114b0565b602082019050919050565b60006020820190508181036000830152611515816114d9565b9050919050565b600061152782610d25565b91507fffffffffffffffffffffffffffffffffffffffffffffffffffffffffffffffff82036115595761155861134f565b5b60018201905091905056fea26469706673582212207bbd4f9543b6a161195de0d846ddcfc6fa523b03aee577add9680ad85bd0601564736f6c63430008180033",
  "linkReferences": {},
  "deployedLinkReferences": {}
}